{
  "_format": "hh-sol-artifact-1",
  "contractName": "ProverbPortal",
  "sourceName": "contracts/ProverbPortal.sol",
  "abi": [
    {
      "inputs": [],
      "name": "getTotalproverbs",
      "outputs": [
        {
          "internalType": "uint256",
          "name": "",
          "type": "uint256"
        }
      ],
      "stateMutability": "view",
      "type": "function"
    },
    {
      "inputs": [
        {
          "internalType": "address",
          "name": "",
          "type": "address"
        }
      ],
      "name": "persons",
      "outputs": [
        {
          "internalType": "uint256",
          "name": "",
          "type": "uint256"
        }
      ],
      "stateMutability": "view",
      "type": "function"
    },
    {
      "inputs": [],
      "name": "proverbs",
      "outputs": [
        {
          "internalType": "uint256",
          "name": "",
          "type": "uint256"
        }
      ],
      "stateMutability": "view",
      "type": "function"
    },
    {
      "inputs": [],
      "name": "sayProverb",
      "outputs": [],
      "stateMutability": "nonpayable",
      "type": "function"
    }
  ],
  "bytecode": "0x60806040526000805534801561001457600080fd5b506105af806100246000396000f3fe608060405234801561001057600080fd5b506004361061004c5760003560e01c806358efcce414610051578063868ac5cd1461005b5780638ada2cf614610079578063a53d6077146100a9575b600080fd5b6100596100c7565b005b610063610174565b6040516100709190610433565b60405180910390f35b610093600480360381019061008e9190610353565b6101bf565b6040516100a09190610433565b60405180910390f35b6100b16101d7565b6040516100be9190610433565b60405180910390f35b6000808154809291906100d9906104d9565b9190505550600160003373ffffffffffffffffffffffffffffffffffffffff1673ffffffffffffffffffffffffffffffffffffffff168152602001908152602001600020600081548092919061012e906104d9565b91905055506101726040518060400160405280601681526020017f2573206861732073617920616e2070726f766572622100000000000000000000815250336101dd565b565b60006101b76040518060400160405280601a81526020017f5765206861766520256420746f74616c2070726f766572627321000000000000815250600054610279565b600054905090565b60016020528060005260406000206000915090505481565b60005481565b61027582826040516024016101f39291906103d3565b6040516020818303038152906040527f319af333000000000000000000000000000000000000000000000000000000007bffffffffffffffffffffffffffffffffffffffffffffffffffffffff19166020820180517bffffffffffffffffffffffffffffffffffffffffffffffffffffffff8381831617835250505050610315565b5050565b610311828260405160240161028f929190610403565b6040516020818303038152906040527f9710a9d0000000000000000000000000000000000000000000000000000000007bffffffffffffffffffffffffffffffffffffffffffffffffffffffff19166020820180517bffffffffffffffffffffffffffffffffffffffffffffffffffffffff8381831617835250505050610315565b5050565b60008151905060006a636f6e736f6c652e6c6f679050602083016000808483855afa5050505050565b60008135905061034d81610562565b92915050565b60006020828403121561036557600080fd5b60006103738482850161033e565b91505092915050565b6103858161046a565b82525050565b60006103968261044e565b6103a08185610459565b93506103b08185602086016104a6565b6103b981610551565b840191505092915050565b6103cd8161049c565b82525050565b600060408201905081810360008301526103ed818561038b565b90506103fc602083018461037c565b9392505050565b6000604082019050818103600083015261041d818561038b565b905061042c60208301846103c4565b9392505050565b600060208201905061044860008301846103c4565b92915050565b600081519050919050565b600082825260208201905092915050565b60006104758261047c565b9050919050565b600073ffffffffffffffffffffffffffffffffffffffff82169050919050565b6000819050919050565b60005b838110156104c45780820151818401526020810190506104a9565b838111156104d3576000848401525b50505050565b60006104e48261049c565b91507fffffffffffffffffffffffffffffffffffffffffffffffffffffffffffffffff82141561051757610516610522565b5b600182019050919050565b7f4e487b7100000000000000000000000000000000000000000000000000000000600052601160045260246000fd5b6000601f19601f8301169050919050565b61056b8161046a565b811461057657600080fd5b5056fea264697066735822122057ec969cc2b465aef3d7f36e8225c6197740a93061e8351db58e7216ee23d79f64736f6c63430008040033",
  "linkReferences": {},
  "deployedLinkReferences": {}
}