{
  "_format": "hh-sol-artifact-1",
  "contractName": "ProverbPortal",
  "sourceName": "contracts/ProverbPortal.sol",
  "abi": [
    {
      "inputs": [],
      "stateMutability": "payable",
      "type": "constructor"
    },
    {
      "anonymous": false,
      "inputs": [
        {
          "indexed": true,
          "internalType": "address",
          "name": "from",
          "type": "address"
        },
        {
          "indexed": false,
          "internalType": "uint256",
          "name": "timestamp",
          "type": "uint256"
        },
        {
          "indexed": false,
          "internalType": "string",
          "name": "message",
          "type": "string"
        }
      ],
      "name": "NewProverb",
      "type": "event"
    },
    {
      "inputs": [],
      "name": "getProverbs",
      "outputs": [
        {
          "components": [
            {
              "internalType": "address",
              "name": "from",
              "type": "address"
            },
            {
              "internalType": "uint256",
              "name": "timestamp",
              "type": "uint256"
            },
            {
              "internalType": "string",
              "name": "message",
              "type": "string"
            }
          ],
          "internalType": "struct ProverbPortal.Proverb[]",
          "name": "",
          "type": "tuple[]"
        }
      ],
      "stateMutability": "view",
      "type": "function"
    },
    {
      "inputs": [],
      "name": "getTotalProverbs",
      "outputs": [
        {
          "internalType": "uint256",
          "name": "",
          "type": "uint256"
        }
      ],
      "stateMutability": "view",
      "type": "function"
    },
    {
      "inputs": [
        {
          "internalType": "address",
          "name": "",
          "type": "address"
        }
      ],
      "name": "lastProverbAt",
      "outputs": [
        {
          "internalType": "uint256",
          "name": "",
          "type": "uint256"
        }
      ],
      "stateMutability": "view",
      "type": "function"
    },
    {
      "inputs": [
        {
          "internalType": "uint256",
          "name": "",
          "type": "uint256"
        }
      ],
      "name": "proverbs",
      "outputs": [
        {
          "internalType": "address",
          "name": "from",
          "type": "address"
        },
        {
          "internalType": "uint256",
          "name": "timestamp",
          "type": "uint256"
        },
        {
          "internalType": "string",
          "name": "message",
          "type": "string"
        }
      ],
      "stateMutability": "view",
      "type": "function"
    },
    {
      "inputs": [],
      "name": "proverbsCount",
      "outputs": [
        {
          "internalType": "uint256",
          "name": "",
          "type": "uint256"
        }
      ],
      "stateMutability": "view",
      "type": "function"
    },
    {
      "inputs": [
        {
          "internalType": "string",
          "name": "_message",
          "type": "string"
        }
      ],
      "name": "sayProverb",
      "outputs": [],
      "stateMutability": "nonpayable",
      "type": "function"
    }
  ],
  "bytecode": "0x608060405260008055620000536040518060400160405280601981526020017f50726f76657262506f7274616c20636f6e7374727563746f72000000000000008152506200007b60201b620007951760201c565b60644442620000639190620001c8565b6200006f919062000265565b6001819055506200030c565b6200011b8160405160240162000092919062000188565b6040516020818303038152906040527f41304fac000000000000000000000000000000000000000000000000000000007bffffffffffffffffffffffffffffffffffffffffffffffffffffffff19166020820180517bffffffffffffffffffffffffffffffffffffffffffffffffffffffff83818316178352505050506200011e60201b60201c565b50565b60008151905060006a636f6e736f6c652e6c6f679050602083016000808483855afa5050505050565b60006200015482620001ac565b620001608185620001b7565b9350620001728185602086016200022f565b6200017d81620002fb565b840191505092915050565b60006020820190508181036000830152620001a4818462000147565b905092915050565b600081519050919050565b600082825260208201905092915050565b6000620001d58262000225565b9150620001e28362000225565b9250827fffffffffffffffffffffffffffffffffffffffffffffffffffffffffffffffff038211156200021a57620002196200029d565b5b828201905092915050565b6000819050919050565b60005b838110156200024f57808201518184015260208101905062000232565b838111156200025f576000848401525b50505050565b6000620002728262000225565b91506200027f8362000225565b925082620002925762000291620002cc565b5b828206905092915050565b7f4e487b7100000000000000000000000000000000000000000000000000000000600052601160045260246000fd5b7f4e487b7100000000000000000000000000000000000000000000000000000000600052601260045260246000fd5b6000601f19601f8301169050919050565b6113a5806200031c6000396000f3fe608060405234801561001057600080fd5b50600436106100625760003560e01c80635eed16051461006757806380dce83414610099578063a71d84c3146100b7578063aaecc464146100d3578063bc2c6df9146100f1578063c6c0bbd214610121575b600080fd5b610081600480360381019061007c9190610b2e565b61013f565b60405161009093929190610d7f565b60405180910390f35b6100a1610221565b6040516100ae9190610ec1565b60405180910390f35b6100d160048036038101906100cc9190610aed565b61026c565b005b6100db610626565b6040516100e89190610ec1565b60405180910390f35b61010b60048036038101906101069190610ac4565b61062c565b6040516101189190610ec1565b60405180910390f35b610129610644565b6040516101369190610dbd565b60405180910390f35b6002818154811061014f57600080fd5b90600052602060002090600302016000915090508060000160009054906101000a900473ffffffffffffffffffffffffffffffffffffffff169080600101549080600201805461019e906110a7565b80601f01602080910402602001604051908101604052809291908181526020018280546101ca906110a7565b80156102175780601f106101ec57610100808354040283529160200191610217565b820191906000526020600020905b8154815290600101906020018083116101fa57829003601f168201915b5050505050905083565b60006102646040518060400160405280601a81526020017f5765206861766520256420746f74616c2070726f76657262732100000000000081525060005461082e565b600054905090565b42610384600360003373ffffffffffffffffffffffffffffffffffffffff1673ffffffffffffffffffffffffffffffffffffffff168152602001908152602001600020546102ba9190610fd3565b106102fa576040517f08c379a00000000000000000000000000000000000000000000000000000000081526004016102f190610e81565b60405180910390fd5b42600360003373ffffffffffffffffffffffffffffffffffffffff1673ffffffffffffffffffffffffffffffffffffffff168152602001908152602001600020819055506000808154809291906103509061110a565b9190505550600260405180606001604052803373ffffffffffffffffffffffffffffffffffffffff16815260200142815260200183815250908060018154018082558091505060019003906000526020600020906003020160009091909190915060008201518160000160006101000a81548173ffffffffffffffffffffffffffffffffffffffff021916908373ffffffffffffffffffffffffffffffffffffffff16021790555060208201518160010155604082015181600201908051906020019061041e92919061098f565b505050606460015444426104329190610fd3565b61043c9190610fd3565b6104469190611153565b60018190555061048d6040518060400160405280601681526020017f52616e646f6d20232067656e6572617465643a2025640000000000000000000081525060015461082e565b6032600154116105d3576104d66040518060400160405280600781526020017f257320776f6e2100000000000000000000000000000000000000000000000000815250336108ca565b6000655af3107a4000905047811115610524576040517f08c379a000000000000000000000000000000000000000000000000000000000815260040161051b90610ea1565b60405180910390fd5b60003373ffffffffffffffffffffffffffffffffffffffff168260405161054a90610d6a565b60006040518083038185875af1925050503d8060008114610587576040519150601f19603f3d011682016040523d82523d6000602084013e61058c565b606091505b50509050806105d0576040517f08c379a00000000000000000000000000000000000000000000000000000000081526004016105c790610e61565b60405180910390fd5b50505b3373ffffffffffffffffffffffffffffffffffffffff167f6014f0f299cd586727895316a40554c549761316c282e2d2ee54670dd8393001428360405161061b929190610edc565b60405180910390a250565b60005481565b60036020528060005260406000206000915090505481565b60606002805480602002602001604051908101604052809291908181526020016000905b8282101561078c57838290600052602060002090600302016040518060600160405290816000820160009054906101000a900473ffffffffffffffffffffffffffffffffffffffff1673ffffffffffffffffffffffffffffffffffffffff1673ffffffffffffffffffffffffffffffffffffffff168152602001600182015481526020016002820180546106fb906110a7565b80601f0160208091040260200160405190810160405280929190818152602001828054610727906110a7565b80156107745780601f1061074957610100808354040283529160200191610774565b820191906000526020600020905b81548152906001019060200180831161075757829003601f168201915b50505050508152505081526020019060010190610668565b50505050905090565b61082b816040516024016107a99190610ddf565b6040516020818303038152906040527f41304fac000000000000000000000000000000000000000000000000000000007bffffffffffffffffffffffffffffffffffffffffffffffffffffffff19166020820180517bffffffffffffffffffffffffffffffffffffffffffffffffffffffff8381831617835250505050610966565b50565b6108c68282604051602401610844929190610e31565b6040516020818303038152906040527f9710a9d0000000000000000000000000000000000000000000000000000000007bffffffffffffffffffffffffffffffffffffffffffffffffffffffff19166020820180517bffffffffffffffffffffffffffffffffffffffffffffffffffffffff8381831617835250505050610966565b5050565b61096282826040516024016108e0929190610e01565b6040516020818303038152906040527f319af333000000000000000000000000000000000000000000000000000000007bffffffffffffffffffffffffffffffffffffffffffffffffffffffff19166020820180517bffffffffffffffffffffffffffffffffffffffffffffffffffffffff8381831617835250505050610966565b5050565b60008151905060006a636f6e736f6c652e6c6f679050602083016000808483855afa5050505050565b82805461099b906110a7565b90600052602060002090601f0160209004810192826109bd5760008555610a04565b82601f106109d657805160ff1916838001178555610a04565b82800160010185558215610a04579182015b82811115610a035782518255916020019190600101906109e8565b5b509050610a119190610a15565b5090565b5b80821115610a2e576000816000905550600101610a16565b5090565b6000610a45610a4084610f31565b610f0c565b905082815260208101848484011115610a5d57600080fd5b610a68848285611065565b509392505050565b600081359050610a7f81611341565b92915050565b600082601f830112610a9657600080fd5b8135610aa6848260208601610a32565b91505092915050565b600081359050610abe81611358565b92915050565b600060208284031215610ad657600080fd5b6000610ae484828501610a70565b91505092915050565b600060208284031215610aff57600080fd5b600082013567ffffffffffffffff811115610b1957600080fd5b610b2584828501610a85565b91505092915050565b600060208284031215610b4057600080fd5b6000610b4e84828501610aaf565b91505092915050565b6000610b638383610cfc565b905092915050565b610b7481611029565b82525050565b610b8381611029565b82525050565b6000610b9482610f72565b610b9e8185610f95565b935083602082028501610bb085610f62565b8060005b85811015610bec5784840389528151610bcd8582610b57565b9450610bd883610f88565b925060208a01995050600181019050610bb4565b50829750879550505050505092915050565b6000610c0982610f7d565b610c138185610fb1565b9350610c23818560208601611074565b610c2c81611240565b840191505092915050565b6000610c4282610f7d565b610c4c8185610fc2565b9350610c5c818560208601611074565b610c6581611240565b840191505092915050565b6000610c7d602783610fc2565b9150610c8882611251565b604082019050919050565b6000610ca0602b83610fc2565b9150610cab826112a0565b604082019050919050565b6000610cc3600083610fa6565b9150610cce826112ef565b600082019050919050565b6000610ce6603583610fc2565b9150610cf1826112f2565b604082019050919050565b6000606083016000830151610d146000860182610b6b565b506020830151610d276020860182610d4c565b5060408301518482036040860152610d3f8282610bfe565b9150508091505092915050565b610d558161105b565b82525050565b610d648161105b565b82525050565b6000610d7582610cb6565b9150819050919050565b6000606082019050610d946000830186610b7a565b610da16020830185610d5b565b8181036040830152610db38184610c37565b9050949350505050565b60006020820190508181036000830152610dd78184610b89565b905092915050565b60006020820190508181036000830152610df98184610c37565b905092915050565b60006040820190508181036000830152610e1b8185610c37565b9050610e2a6020830184610b7a565b9392505050565b60006040820190508181036000830152610e4b8185610c37565b9050610e5a6020830184610d5b565b9392505050565b60006020820190508181036000830152610e7a81610c70565b9050919050565b60006020820190508181036000830152610e9a81610c93565b9050919050565b60006020820190508181036000830152610eba81610cd9565b9050919050565b6000602082019050610ed66000830184610d5b565b92915050565b6000604082019050610ef16000830185610d5b565b8181036020830152610f038184610c37565b90509392505050565b6000610f16610f27565b9050610f2282826110d9565b919050565b6000604051905090565b600067ffffffffffffffff821115610f4c57610f4b611211565b5b610f5582611240565b9050602081019050919050565b6000819050602082019050919050565b600081519050919050565b600081519050919050565b6000602082019050919050565b600082825260208201905092915050565b600081905092915050565b600082825260208201905092915050565b600082825260208201905092915050565b6000610fde8261105b565b9150610fe98361105b565b9250827fffffffffffffffffffffffffffffffffffffffffffffffffffffffffffffffff0382111561101e5761101d611184565b5b828201905092915050565b60006110348261103b565b9050919050565b600073ffffffffffffffffffffffffffffffffffffffff82169050919050565b6000819050919050565b82818337600083830152505050565b60005b83811015611092578082015181840152602081019050611077565b838111156110a1576000848401525b50505050565b600060028204905060018216806110bf57607f821691505b602082108114156110d3576110d26111e2565b5b50919050565b6110e282611240565b810181811067ffffffffffffffff8211171561110157611100611211565b5b80604052505050565b60006111158261105b565b91507fffffffffffffffffffffffffffffffffffffffffffffffffffffffffffffffff82141561114857611147611184565b5b600182019050919050565b600061115e8261105b565b91506111698361105b565b925082611179576111786111b3565b5b828206905092915050565b7f4e487b7100000000000000000000000000000000000000000000000000000000600052601160045260246000fd5b7f4e487b7100000000000000000000000000000000000000000000000000000000600052601260045260246000fd5b7f4e487b7100000000000000000000000000000000000000000000000000000000600052602260045260246000fd5b7f4e487b7100000000000000000000000000000000000000000000000000000000600052604160045260246000fd5b6000601f19601f8301169050919050565b7f4661696c656420746f207769746864726177206d6f6e65792066726f6d20636f60008201527f6e74726163742e00000000000000000000000000000000000000000000000000602082015250565b7f596f752063616e206f6e6c792073617920612070726f7665726220657665727960008201527f203135206d696e75746573000000000000000000000000000000000000000000602082015250565b50565b7f547279696e6720746f207769746864726177206d6f7265206d6f6e657920746860008201527f616e2074686520636f6e7472616374206861732e300000000000000000000000602082015250565b61134a81611029565b811461135557600080fd5b50565b6113618161105b565b811461136c57600080fd5b5056fea2646970667358221220d181b595e8e6c4d5291a4e7d7ddc5afa18d44e0027c9435396364db04cdcb5d264736f6c63430008040033",
  "linkReferences": {},
  "deployedLinkReferences": {}
}