{
  "_format": "hh-sol-artifact-1",
  "contractName": "ProverbPortal",
  "sourceName": "contracts/ProverbPortal.sol",
  "abi": [
    {
      "inputs": [],
      "stateMutability": "payable",
      "type": "constructor"
    },
    {
      "anonymous": false,
      "inputs": [
        {
          "indexed": true,
          "internalType": "address",
          "name": "from",
          "type": "address"
        },
        {
          "indexed": false,
          "internalType": "uint256",
          "name": "timestamp",
          "type": "uint256"
        },
        {
          "indexed": false,
          "internalType": "string",
          "name": "message",
          "type": "string"
        }
      ],
      "name": "NewProverb",
      "type": "event"
    },
    {
      "inputs": [],
      "name": "getProverbs",
      "outputs": [
        {
          "components": [
            {
              "internalType": "address",
              "name": "from",
              "type": "address"
            },
            {
              "internalType": "uint256",
              "name": "timestamp",
              "type": "uint256"
            },
            {
              "internalType": "string",
              "name": "message",
              "type": "string"
            }
          ],
          "internalType": "struct ProverbPortal.Proverb[]",
          "name": "",
          "type": "tuple[]"
        }
      ],
      "stateMutability": "view",
      "type": "function"
    },
    {
      "inputs": [],
      "name": "getTotalProverbs",
      "outputs": [
        {
          "internalType": "uint256",
          "name": "",
          "type": "uint256"
        }
      ],
      "stateMutability": "view",
      "type": "function"
    },
    {
      "inputs": [
        {
          "internalType": "address",
          "name": "",
          "type": "address"
        }
      ],
      "name": "lastProverbAt",
      "outputs": [
        {
          "internalType": "uint256",
          "name": "",
          "type": "uint256"
        }
      ],
      "stateMutability": "view",
      "type": "function"
    },
    {
      "inputs": [
        {
          "internalType": "uint256",
          "name": "",
          "type": "uint256"
        }
      ],
      "name": "proverbs",
      "outputs": [
        {
          "internalType": "address",
          "name": "from",
          "type": "address"
        },
        {
          "internalType": "uint256",
          "name": "timestamp",
          "type": "uint256"
        },
        {
          "internalType": "string",
          "name": "message",
          "type": "string"
        }
      ],
      "stateMutability": "view",
      "type": "function"
    },
    {
      "inputs": [],
      "name": "proverbsCount",
      "outputs": [
        {
          "internalType": "uint256",
          "name": "",
          "type": "uint256"
        }
      ],
      "stateMutability": "view",
      "type": "function"
    },
    {
      "inputs": [
        {
          "internalType": "string",
          "name": "_message",
          "type": "string"
        }
      ],
      "name": "sayProverb",
      "outputs": [],
      "stateMutability": "nonpayable",
      "type": "function"
    }
  ],
  "bytecode": "0x608060405260008055620000536040518060400160405280601981526020017f50726f76657262506f7274616c20636f6e7374727563746f72000000000000008152506200007b60201b620007941760201c565b60644442620000639190620001c8565b6200006f919062000265565b6001819055506200030c565b6200011b8160405160240162000092919062000188565b6040516020818303038152906040527f41304fac000000000000000000000000000000000000000000000000000000007bffffffffffffffffffffffffffffffffffffffffffffffffffffffff19166020820180517bffffffffffffffffffffffffffffffffffffffffffffffffffffffff83818316178352505050506200011e60201b60201c565b50565b60008151905060006a636f6e736f6c652e6c6f679050602083016000808483855afa5050505050565b60006200015482620001ac565b620001608185620001b7565b9350620001728185602086016200022f565b6200017d81620002fb565b840191505092915050565b60006020820190508181036000830152620001a4818462000147565b905092915050565b600081519050919050565b600082825260208201905092915050565b6000620001d58262000225565b9150620001e28362000225565b9250827fffffffffffffffffffffffffffffffffffffffffffffffffffffffffffffffff038211156200021a57620002196200029d565b5b828201905092915050565b6000819050919050565b60005b838110156200024f57808201518184015260208101905062000232565b838111156200025f576000848401525b50505050565b6000620002728262000225565b91506200027f8362000225565b925082620002925762000291620002cc565b5b828206905092915050565b7f4e487b7100000000000000000000000000000000000000000000000000000000600052601160045260246000fd5b7f4e487b7100000000000000000000000000000000000000000000000000000000600052601260045260246000fd5b6000601f19601f8301169050919050565b6113a4806200031c6000396000f3fe608060405234801561001057600080fd5b50600436106100625760003560e01c80635eed16051461006757806380dce83414610099578063a71d84c3146100b7578063aaecc464146100d3578063bc2c6df9146100f1578063c6c0bbd214610121575b600080fd5b610081600480360381019061007c9190610b2d565b61013f565b60405161009093929190610d7e565b60405180910390f35b6100a1610221565b6040516100ae9190610ec0565b60405180910390f35b6100d160048036038101906100cc9190610aec565b61026c565b005b6100db610625565b6040516100e89190610ec0565b60405180910390f35b61010b60048036038101906101069190610ac3565b61062b565b6040516101189190610ec0565b60405180910390f35b610129610643565b6040516101369190610dbc565b60405180910390f35b6002818154811061014f57600080fd5b90600052602060002090600302016000915090508060000160009054906101000a900473ffffffffffffffffffffffffffffffffffffffff169080600101549080600201805461019e906110a6565b80601f01602080910402602001604051908101604052809291908181526020018280546101ca906110a6565b80156102175780601f106101ec57610100808354040283529160200191610217565b820191906000526020600020905b8154815290600101906020018083116101fa57829003601f168201915b5050505050905083565b60006102646040518060400160405280601a81526020017f5765206861766520256420746f74616c2070726f76657262732100000000000081525060005461082d565b600054905090565b42603c600360003373ffffffffffffffffffffffffffffffffffffffff1673ffffffffffffffffffffffffffffffffffffffff168152602001908152602001600020546102b99190610fd2565b106102f9576040517f08c379a00000000000000000000000000000000000000000000000000000000081526004016102f090610e80565b60405180910390fd5b42600360003373ffffffffffffffffffffffffffffffffffffffff1673ffffffffffffffffffffffffffffffffffffffff1681526020019081526020016000208190555060008081548092919061034f90611109565b9190505550600260405180606001604052803373ffffffffffffffffffffffffffffffffffffffff16815260200142815260200183815250908060018154018082558091505060019003906000526020600020906003020160009091909190915060008201518160000160006101000a81548173ffffffffffffffffffffffffffffffffffffffff021916908373ffffffffffffffffffffffffffffffffffffffff16021790555060208201518160010155604082015181600201908051906020019061041d92919061098e565b505050606460015444426104319190610fd2565b61043b9190610fd2565b6104459190611152565b60018190555061048c6040518060400160405280601681526020017f52616e646f6d20232067656e6572617465643a2025640000000000000000000081525060015461082d565b6032600154116105d2576104d56040518060400160405280600781526020017f257320776f6e2100000000000000000000000000000000000000000000000000815250336108c9565b6000655af3107a4000905047811115610523576040517f08c379a000000000000000000000000000000000000000000000000000000000815260040161051a90610ea0565b60405180910390fd5b60003373ffffffffffffffffffffffffffffffffffffffff168260405161054990610d69565b60006040518083038185875af1925050503d8060008114610586576040519150601f19603f3d011682016040523d82523d6000602084013e61058b565b606091505b50509050806105cf576040517f08c379a00000000000000000000000000000000000000000000000000000000081526004016105c690610e60565b60405180910390fd5b50505b3373ffffffffffffffffffffffffffffffffffffffff167f6014f0f299cd586727895316a40554c549761316c282e2d2ee54670dd8393001428360405161061a929190610edb565b60405180910390a250565b60005481565b60036020528060005260406000206000915090505481565b60606002805480602002602001604051908101604052809291908181526020016000905b8282101561078b57838290600052602060002090600302016040518060600160405290816000820160009054906101000a900473ffffffffffffffffffffffffffffffffffffffff1673ffffffffffffffffffffffffffffffffffffffff1673ffffffffffffffffffffffffffffffffffffffff168152602001600182015481526020016002820180546106fa906110a6565b80601f0160208091040260200160405190810160405280929190818152602001828054610726906110a6565b80156107735780601f1061074857610100808354040283529160200191610773565b820191906000526020600020905b81548152906001019060200180831161075657829003601f168201915b50505050508152505081526020019060010190610667565b50505050905090565b61082a816040516024016107a89190610dde565b6040516020818303038152906040527f41304fac000000000000000000000000000000000000000000000000000000007bffffffffffffffffffffffffffffffffffffffffffffffffffffffff19166020820180517bffffffffffffffffffffffffffffffffffffffffffffffffffffffff8381831617835250505050610965565b50565b6108c58282604051602401610843929190610e30565b6040516020818303038152906040527f9710a9d0000000000000000000000000000000000000000000000000000000007bffffffffffffffffffffffffffffffffffffffffffffffffffffffff19166020820180517bffffffffffffffffffffffffffffffffffffffffffffffffffffffff8381831617835250505050610965565b5050565b61096182826040516024016108df929190610e00565b6040516020818303038152906040527f319af333000000000000000000000000000000000000000000000000000000007bffffffffffffffffffffffffffffffffffffffffffffffffffffffff19166020820180517bffffffffffffffffffffffffffffffffffffffffffffffffffffffff8381831617835250505050610965565b5050565b60008151905060006a636f6e736f6c652e6c6f679050602083016000808483855afa5050505050565b82805461099a906110a6565b90600052602060002090601f0160209004810192826109bc5760008555610a03565b82601f106109d557805160ff1916838001178555610a03565b82800160010185558215610a03579182015b82811115610a025782518255916020019190600101906109e7565b5b509050610a109190610a14565b5090565b5b80821115610a2d576000816000905550600101610a15565b5090565b6000610a44610a3f84610f30565b610f0b565b905082815260208101848484011115610a5c57600080fd5b610a67848285611064565b509392505050565b600081359050610a7e81611340565b92915050565b600082601f830112610a9557600080fd5b8135610aa5848260208601610a31565b91505092915050565b600081359050610abd81611357565b92915050565b600060208284031215610ad557600080fd5b6000610ae384828501610a6f565b91505092915050565b600060208284031215610afe57600080fd5b600082013567ffffffffffffffff811115610b1857600080fd5b610b2484828501610a84565b91505092915050565b600060208284031215610b3f57600080fd5b6000610b4d84828501610aae565b91505092915050565b6000610b628383610cfb565b905092915050565b610b7381611028565b82525050565b610b8281611028565b82525050565b6000610b9382610f71565b610b9d8185610f94565b935083602082028501610baf85610f61565b8060005b85811015610beb5784840389528151610bcc8582610b56565b9450610bd783610f87565b925060208a01995050600181019050610bb3565b50829750879550505050505092915050565b6000610c0882610f7c565b610c128185610fb0565b9350610c22818560208601611073565b610c2b8161123f565b840191505092915050565b6000610c4182610f7c565b610c4b8185610fc1565b9350610c5b818560208601611073565b610c648161123f565b840191505092915050565b6000610c7c602783610fc1565b9150610c8782611250565b604082019050919050565b6000610c9f600083610fa5565b9150610caa8261129f565b600082019050919050565b6000610cc2602983610fc1565b9150610ccd826112a2565b604082019050919050565b6000610ce5603583610fc1565b9150610cf0826112f1565b604082019050919050565b6000606083016000830151610d136000860182610b6a565b506020830151610d266020860182610d4b565b5060408301518482036040860152610d3e8282610bfd565b9150508091505092915050565b610d548161105a565b82525050565b610d638161105a565b82525050565b6000610d7482610c92565b9150819050919050565b6000606082019050610d936000830186610b79565b610da06020830185610d5a565b8181036040830152610db28184610c36565b9050949350505050565b60006020820190508181036000830152610dd68184610b88565b905092915050565b60006020820190508181036000830152610df88184610c36565b905092915050565b60006040820190508181036000830152610e1a8185610c36565b9050610e296020830184610b79565b9392505050565b60006040820190508181036000830152610e4a8185610c36565b9050610e596020830184610d5a565b9392505050565b60006020820190508181036000830152610e7981610c6f565b9050919050565b60006020820190508181036000830152610e9981610cb5565b9050919050565b60006020820190508181036000830152610eb981610cd8565b9050919050565b6000602082019050610ed56000830184610d5a565b92915050565b6000604082019050610ef06000830185610d5a565b8181036020830152610f028184610c36565b90509392505050565b6000610f15610f26565b9050610f2182826110d8565b919050565b6000604051905090565b600067ffffffffffffffff821115610f4b57610f4a611210565b5b610f548261123f565b9050602081019050919050565b6000819050602082019050919050565b600081519050919050565b600081519050919050565b6000602082019050919050565b600082825260208201905092915050565b600081905092915050565b600082825260208201905092915050565b600082825260208201905092915050565b6000610fdd8261105a565b9150610fe88361105a565b9250827fffffffffffffffffffffffffffffffffffffffffffffffffffffffffffffffff0382111561101d5761101c611183565b5b828201905092915050565b60006110338261103a565b9050919050565b600073ffffffffffffffffffffffffffffffffffffffff82169050919050565b6000819050919050565b82818337600083830152505050565b60005b83811015611091578082015181840152602081019050611076565b838111156110a0576000848401525b50505050565b600060028204905060018216806110be57607f821691505b602082108114156110d2576110d16111e1565b5b50919050565b6110e18261123f565b810181811067ffffffffffffffff82111715611100576110ff611210565b5b80604052505050565b60006111148261105a565b91507fffffffffffffffffffffffffffffffffffffffffffffffffffffffffffffffff82141561114757611146611183565b5b600182019050919050565b600061115d8261105a565b91506111688361105a565b925082611178576111776111b2565b5b828206905092915050565b7f4e487b7100000000000000000000000000000000000000000000000000000000600052601160045260246000fd5b7f4e487b7100000000000000000000000000000000000000000000000000000000600052601260045260246000fd5b7f4e487b7100000000000000000000000000000000000000000000000000000000600052602260045260246000fd5b7f4e487b7100000000000000000000000000000000000000000000000000000000600052604160045260246000fd5b6000601f19601f8301169050919050565b7f4661696c656420746f207769746864726177206d6f6e65792066726f6d20636f60008201527f6e74726163742e00000000000000000000000000000000000000000000000000602082015250565b50565b7f596f752063616e206f6e6c792073617920612070726f7665726220657665727960008201527f2031206d696e7574650000000000000000000000000000000000000000000000602082015250565b7f547279696e6720746f207769746864726177206d6f7265206d6f6e657920746860008201527f616e2074686520636f6e7472616374206861732e300000000000000000000000602082015250565b61134981611028565b811461135457600080fd5b50565b6113608161105a565b811461136b57600080fd5b5056fea264697066735822122066f228223c2be71a45952ec801ce80f8392ffe90ca62ec0d68ee81c2d8a1f73d64736f6c63430008040033",
  "linkReferences": {},
  "deployedLinkReferences": {}
}